{
  "_format": "hh-sol-artifact-1",
  "contractName": "I4TKdocToken",
  "sourceName": "contracts/I4TKdocToken.sol",
  "abi": [
    {
      "inputs": [
        {
          "internalType": "address",
          "name": "defaultAdmin",
          "type": "address"
        }
      ],
      "stateMutability": "nonpayable",
      "type": "constructor"
    },
    {
      "inputs": [],
      "name": "AccessControlBadConfirmation",
      "type": "error"
    },
    {
      "inputs": [
        {
          "internalType": "address",
          "name": "account",
          "type": "address"
        },
        {
          "internalType": "bytes32",
          "name": "neededRole",
          "type": "bytes32"
        }
      ],
      "name": "AccessControlUnauthorizedAccount",
      "type": "error"
    },
    {
      "inputs": [
        {
          "internalType": "address",
          "name": "sender",
          "type": "address"
        },
        {
          "internalType": "uint256",
          "name": "balance",
          "type": "uint256"
        },
        {
          "internalType": "uint256",
          "name": "needed",
          "type": "uint256"
        },
        {
          "internalType": "uint256",
          "name": "tokenId",
          "type": "uint256"
        }
      ],
      "name": "ERC1155InsufficientBalance",
      "type": "error"
    },
    {
      "inputs": [
        {
          "internalType": "address",
          "name": "approver",
          "type": "address"
        }
      ],
      "name": "ERC1155InvalidApprover",
      "type": "error"
    },
    {
      "inputs": [
        {
          "internalType": "uint256",
          "name": "idsLength",
          "type": "uint256"
        },
        {
          "internalType": "uint256",
          "name": "valuesLength",
          "type": "uint256"
        }
      ],
      "name": "ERC1155InvalidArrayLength",
      "type": "error"
    },
    {
      "inputs": [
        {
          "internalType": "address",
          "name": "operator",
          "type": "address"
        }
      ],
      "name": "ERC1155InvalidOperator",
      "type": "error"
    },
    {
      "inputs": [
        {
          "internalType": "address",
          "name": "receiver",
          "type": "address"
        }
      ],
      "name": "ERC1155InvalidReceiver",
      "type": "error"
    },
    {
      "inputs": [
        {
          "internalType": "address",
          "name": "sender",
          "type": "address"
        }
      ],
      "name": "ERC1155InvalidSender",
      "type": "error"
    },
    {
      "inputs": [
        {
          "internalType": "address",
          "name": "operator",
          "type": "address"
        },
        {
          "internalType": "address",
          "name": "owner",
          "type": "address"
        }
      ],
      "name": "ERC1155MissingApprovalForAll",
      "type": "error"
    },
    {
      "anonymous": false,
      "inputs": [
        {
          "indexed": true,
          "internalType": "address",
          "name": "account",
          "type": "address"
        },
        {
          "indexed": true,
          "internalType": "address",
          "name": "operator",
          "type": "address"
        },
        {
          "indexed": false,
          "internalType": "bool",
          "name": "approved",
          "type": "bool"
        }
      ],
      "name": "ApprovalForAll",
      "type": "event"
    },
    {
      "anonymous": false,
      "inputs": [
        {
          "indexed": true,
          "internalType": "bytes32",
          "name": "role",
          "type": "bytes32"
        },
        {
          "indexed": true,
          "internalType": "bytes32",
          "name": "previousAdminRole",
          "type": "bytes32"
        },
        {
          "indexed": true,
          "internalType": "bytes32",
          "name": "newAdminRole",
          "type": "bytes32"
        }
      ],
      "name": "RoleAdminChanged",
      "type": "event"
    },
    {
      "anonymous": false,
      "inputs": [
        {
          "indexed": true,
          "internalType": "bytes32",
          "name": "role",
          "type": "bytes32"
        },
        {
          "indexed": true,
          "internalType": "address",
          "name": "account",
          "type": "address"
        },
        {
          "indexed": true,
          "internalType": "address",
          "name": "sender",
          "type": "address"
        }
      ],
      "name": "RoleGranted",
      "type": "event"
    },
    {
      "anonymous": false,
      "inputs": [
        {
          "indexed": true,
          "internalType": "bytes32",
          "name": "role",
          "type": "bytes32"
        },
        {
          "indexed": true,
          "internalType": "address",
          "name": "account",
          "type": "address"
        },
        {
          "indexed": true,
          "internalType": "address",
          "name": "sender",
          "type": "address"
        }
      ],
      "name": "RoleRevoked",
      "type": "event"
    },
    {
      "anonymous": false,
      "inputs": [
        {
          "indexed": true,
          "internalType": "address",
          "name": "operator",
          "type": "address"
        },
        {
          "indexed": true,
          "internalType": "address",
          "name": "from",
          "type": "address"
        },
        {
          "indexed": true,
          "internalType": "address",
          "name": "to",
          "type": "address"
        },
        {
          "indexed": false,
          "internalType": "uint256[]",
          "name": "ids",
          "type": "uint256[]"
        },
        {
          "indexed": false,
          "internalType": "uint256[]",
          "name": "values",
          "type": "uint256[]"
        }
      ],
      "name": "TransferBatch",
      "type": "event"
    },
    {
      "anonymous": false,
      "inputs": [
        {
          "indexed": true,
          "internalType": "address",
          "name": "operator",
          "type": "address"
        },
        {
          "indexed": true,
          "internalType": "address",
          "name": "from",
          "type": "address"
        },
        {
          "indexed": true,
          "internalType": "address",
          "name": "to",
          "type": "address"
        },
        {
          "indexed": false,
          "internalType": "uint256",
          "name": "id",
          "type": "uint256"
        },
        {
          "indexed": false,
          "internalType": "uint256",
          "name": "value",
          "type": "uint256"
        }
      ],
      "name": "TransferSingle",
      "type": "event"
    },
    {
      "anonymous": false,
      "inputs": [
        {
          "indexed": false,
          "internalType": "string",
          "name": "value",
          "type": "string"
        },
        {
          "indexed": true,
          "internalType": "uint256",
          "name": "id",
          "type": "uint256"
        }
      ],
      "name": "URI",
      "type": "event"
    },
    {
      "inputs": [],
      "name": "DECIMAL",
      "outputs": [
        {
          "internalType": "uint256",
          "name": "",
          "type": "uint256"
        }
      ],
      "stateMutability": "view",
      "type": "function"
    },
    {
      "inputs": [],
      "name": "DEFAULT_ADMIN_ROLE",
      "outputs": [
        {
          "internalType": "bytes32",
          "name": "",
          "type": "bytes32"
        }
      ],
      "stateMutability": "view",
      "type": "function"
    },
    {
      "inputs": [],
      "name": "MINTER_ROLE",
      "outputs": [
        {
          "internalType": "bytes32",
          "name": "",
          "type": "bytes32"
        }
      ],
      "stateMutability": "view",
      "type": "function"
    },
    {
      "inputs": [
        {
          "internalType": "address",
          "name": "account",
          "type": "address"
        },
        {
          "internalType": "uint256",
          "name": "id",
          "type": "uint256"
        }
      ],
      "name": "balanceOf",
      "outputs": [
        {
          "internalType": "uint256",
          "name": "",
          "type": "uint256"
        }
      ],
      "stateMutability": "view",
      "type": "function"
    },
    {
      "inputs": [
        {
          "internalType": "address[]",
          "name": "accounts",
          "type": "address[]"
        },
        {
          "internalType": "uint256[]",
          "name": "ids",
          "type": "uint256[]"
        }
      ],
      "name": "balanceOfBatch",
      "outputs": [
        {
          "internalType": "uint256[]",
          "name": "",
          "type": "uint256[]"
        }
      ],
      "stateMutability": "view",
      "type": "function"
    },
    {
      "inputs": [
        {
          "internalType": "address",
          "name": "account",
          "type": "address"
        },
        {
          "internalType": "uint256",
          "name": "id",
          "type": "uint256"
        },
        {
          "internalType": "uint256",
          "name": "value",
          "type": "uint256"
        }
      ],
      "name": "burn",
      "outputs": [],
      "stateMutability": "nonpayable",
      "type": "function"
    },
    {
      "inputs": [
        {
          "internalType": "address",
          "name": "account",
          "type": "address"
        },
        {
          "internalType": "uint256[]",
          "name": "ids",
          "type": "uint256[]"
        },
        {
          "internalType": "uint256[]",
          "name": "values",
          "type": "uint256[]"
        }
      ],
      "name": "burnBatch",
      "outputs": [],
      "stateMutability": "nonpayable",
      "type": "function"
    },
    {
      "inputs": [
        {
          "internalType": "uint256",
          "name": "",
          "type": "uint256"
        },
        {
          "internalType": "uint256",
          "name": "",
          "type": "uint256"
        }
      ],
      "name": "contributions",
      "outputs": [
        {
          "internalType": "uint256",
          "name": "TokenId",
          "type": "uint256"
        },
        {
          "internalType": "uint256",
          "name": "Weight",
          "type": "uint256"
        }
      ],
      "stateMutability": "view",
      "type": "function"
    },
    {
      "inputs": [
        {
          "internalType": "uint256",
          "name": "",
          "type": "uint256"
        }
      ],
      "name": "creator",
      "outputs": [
        {
          "internalType": "address",
          "name": "",
          "type": "address"
        }
      ],
      "stateMutability": "view",
      "type": "function"
    },
    {
      "inputs": [
        {
          "internalType": "uint256",
          "name": "id",
          "type": "uint256"
        }
      ],
      "name": "exists",
      "outputs": [
        {
          "internalType": "bool",
          "name": "",
          "type": "bool"
        }
      ],
      "stateMutability": "view",
      "type": "function"
    },
    {
      "inputs": [
        {
          "internalType": "string",
          "name": "_CID",
          "type": "string"
        },
        {
          "internalType": "string",
          "name": "_title",
          "type": "string"
        },
        {
          "internalType": "string",
          "name": "_authors",
          "type": "string"
        },
        {
          "internalType": "string",
          "name": "_description",
          "type": "string"
        },
        {
          "internalType": "string",
          "name": "_programme",
          "type": "string"
        },
        {
          "internalType": "string",
          "name": "_category",
          "type": "string"
        }
      ],
      "name": "formatTokenURI",
      "outputs": [
        {
          "internalType": "string",
          "name": "",
          "type": "string"
        }
      ],
      "stateMutability": "view",
      "type": "function"
    },
    {
      "inputs": [
        {
          "internalType": "uint256",
          "name": "tokenId",
          "type": "uint256"
        }
      ],
      "name": "getLengthContrib",
      "outputs": [
        {
          "internalType": "uint256",
          "name": "",
          "type": "uint256"
        }
      ],
      "stateMutability": "view",
      "type": "function"
    },
    {
      "inputs": [
        {
          "internalType": "bytes32",
          "name": "role",
          "type": "bytes32"
        }
      ],
      "name": "getRoleAdmin",
      "outputs": [
        {
          "internalType": "bytes32",
          "name": "",
          "type": "bytes32"
        }
      ],
      "stateMutability": "view",
      "type": "function"
    },
    {
      "inputs": [
        {
          "internalType": "uint256",
          "name": "tokenId",
          "type": "uint256"
        },
        {
          "internalType": "uint256",
          "name": "size",
          "type": "uint256"
        }
      ],
      "name": "getcontributions",
      "outputs": [
        {
          "internalType": "uint256[2][]",
          "name": "",
          "type": "uint256[2][]"
        }
      ],
      "stateMutability": "view",
      "type": "function"
    },
    {
      "inputs": [
        {
          "internalType": "bytes32",
          "name": "role",
          "type": "bytes32"
        },
        {
          "internalType": "address",
          "name": "account",
          "type": "address"
        }
      ],
      "name": "grantRole",
      "outputs": [],
      "stateMutability": "nonpayable",
      "type": "function"
    },
    {
      "inputs": [
        {
          "internalType": "bytes32",
          "name": "role",
          "type": "bytes32"
        },
        {
          "internalType": "address",
          "name": "account",
          "type": "address"
        }
      ],
      "name": "hasRole",
      "outputs": [
        {
          "internalType": "bool",
          "name": "",
          "type": "bool"
        }
      ],
      "stateMutability": "view",
      "type": "function"
    },
    {
      "inputs": [
        {
          "internalType": "address",
          "name": "account",
          "type": "address"
        },
        {
          "internalType": "address",
          "name": "operator",
          "type": "address"
        }
      ],
      "name": "isApprovedForAll",
      "outputs": [
        {
          "internalType": "bool",
          "name": "",
          "type": "bool"
        }
      ],
      "stateMutability": "view",
      "type": "function"
    },
    {
      "inputs": [
        {
          "internalType": "address",
          "name": "account",
          "type": "address"
        },
        {
          "internalType": "string",
          "name": "tokenURI",
          "type": "string"
        },
        {
          "internalType": "uint256[]",
          "name": "references",
          "type": "uint256[]"
        },
        {
          "internalType": "bytes",
          "name": "data",
          "type": "bytes"
        }
      ],
      "name": "mint",
      "outputs": [
        {
          "internalType": "uint256",
          "name": "",
          "type": "uint256"
        }
      ],
      "stateMutability": "nonpayable",
      "type": "function"
    },
    {
      "inputs": [
        {
          "internalType": "address",
          "name": "to",
          "type": "address"
        },
        {
          "internalType": "uint256[]",
          "name": "ids",
          "type": "uint256[]"
        },
        {
          "internalType": "uint256[]",
          "name": "amounts",
          "type": "uint256[]"
        },
        {
          "internalType": "bytes",
          "name": "data",
          "type": "bytes"
        }
      ],
      "name": "mintBatch",
      "outputs": [],
      "stateMutability": "nonpayable",
      "type": "function"
    },
    {
      "inputs": [
        {
          "internalType": "bytes32",
          "name": "role",
          "type": "bytes32"
        },
        {
          "internalType": "address",
          "name": "callerConfirmation",
          "type": "address"
        }
      ],
      "name": "renounceRole",
      "outputs": [],
      "stateMutability": "nonpayable",
      "type": "function"
    },
    {
      "inputs": [
        {
          "internalType": "bytes32",
          "name": "role",
          "type": "bytes32"
        },
        {
          "internalType": "address",
          "name": "account",
          "type": "address"
        }
      ],
      "name": "revokeRole",
      "outputs": [],
      "stateMutability": "nonpayable",
      "type": "function"
    },
    {
      "inputs": [
        {
          "internalType": "address",
          "name": "from",
          "type": "address"
        },
        {
          "internalType": "address",
          "name": "to",
          "type": "address"
        },
        {
          "internalType": "uint256[]",
          "name": "ids",
          "type": "uint256[]"
        },
        {
          "internalType": "uint256[]",
          "name": "values",
          "type": "uint256[]"
        },
        {
          "internalType": "bytes",
          "name": "data",
          "type": "bytes"
        }
      ],
      "name": "safeBatchTransferFrom",
      "outputs": [],
      "stateMutability": "nonpayable",
      "type": "function"
    },
    {
      "inputs": [
        {
          "internalType": "address",
          "name": "from",
          "type": "address"
        },
        {
          "internalType": "address",
          "name": "to",
          "type": "address"
        },
        {
          "internalType": "uint256",
          "name": "id",
          "type": "uint256"
        },
        {
          "internalType": "uint256",
          "name": "value",
          "type": "uint256"
        },
        {
          "internalType": "bytes",
          "name": "data",
          "type": "bytes"
        }
      ],
      "name": "safeTransferFrom",
      "outputs": [],
      "stateMutability": "nonpayable",
      "type": "function"
    },
    {
      "inputs": [
        {
          "internalType": "address",
          "name": "operator",
          "type": "address"
        },
        {
          "internalType": "bool",
          "name": "approved",
          "type": "bool"
        }
      ],
      "name": "setApprovalForAll",
      "outputs": [],
      "stateMutability": "nonpayable",
      "type": "function"
    },
    {
      "inputs": [
        {
          "internalType": "bytes4",
          "name": "interfaceId",
          "type": "bytes4"
        }
      ],
      "name": "supportsInterface",
      "outputs": [
        {
          "internalType": "bool",
          "name": "",
          "type": "bool"
        }
      ],
      "stateMutability": "view",
      "type": "function"
    },
    {
      "inputs": [],
      "name": "tokenMaxSupply",
      "outputs": [
        {
          "internalType": "uint256",
          "name": "",
          "type": "uint256"
        }
      ],
      "stateMutability": "view",
      "type": "function"
    },
    {
      "inputs": [],
      "name": "totalSupply",
      "outputs": [
        {
          "internalType": "uint256",
          "name": "",
          "type": "uint256"
        }
      ],
      "stateMutability": "view",
      "type": "function"
    },
    {
      "inputs": [
        {
          "internalType": "uint256",
          "name": "id",
          "type": "uint256"
        }
      ],
      "name": "totalSupply",
      "outputs": [
        {
          "internalType": "uint256",
          "name": "",
          "type": "uint256"
        }
      ],
      "stateMutability": "view",
      "type": "function"
    },
    {
      "inputs": [
        {
          "internalType": "uint256",
          "name": "tokenId",
          "type": "uint256"
        }
      ],
      "name": "uri",
      "outputs": [
        {
          "internalType": "string",
          "name": "",
          "type": "string"
        }
      ],
      "stateMutability": "view",
      "type": "function"
    }
  ],
  "bytecode": "0x608060405260405180602001604052806000815250600390816200002491906200049d565b503480156200003257600080fd5b5060405162004be338038062004be38339818101604052810190620000589190620005ee565b6040518060200160405280600081525062000079816200009760201b60201c565b506200008f6000801b82620000ac60201b60201c565b505062000620565b8060029081620000a891906200049d565b5050565b6000620000c08383620001b060201b60201c565b620001a55760016005600085815260200190815260200160002060000160008473ffffffffffffffffffffffffffffffffffffffff1673ffffffffffffffffffffffffffffffffffffffff16815260200190815260200160002060006101000a81548160ff021916908315150217905550620001416200021b60201b60201c565b73ffffffffffffffffffffffffffffffffffffffff168273ffffffffffffffffffffffffffffffffffffffff16847f2f8788117e7eff1d82e926ec794901d17c78024a50270940304540a733656f0d60405160405180910390a460019050620001aa565b600090505b92915050565b60006005600084815260200190815260200160002060000160008373ffffffffffffffffffffffffffffffffffffffff1673ffffffffffffffffffffffffffffffffffffffff16815260200190815260200160002060009054906101000a900460ff16905092915050565b600033905090565b600081519050919050565b7f4e487b7100000000000000000000000000000000000000000000000000000000600052604160045260246000fd5b7f4e487b7100000000000000000000000000000000000000000000000000000000600052602260045260246000fd5b60006002820490506001821680620002a557607f821691505b602082108103620002bb57620002ba6200025d565b5b50919050565b60008190508160005260206000209050919050565b60006020601f8301049050919050565b600082821b905092915050565b600060088302620003257fffffffffffffffffffffffffffffffffffffffffffffffffffffffffffffffff82620002e6565b620003318683620002e6565b95508019841693508086168417925050509392505050565b6000819050919050565b6000819050919050565b60006200037e62000378620003728462000349565b62000353565b62000349565b9050919050565b6000819050919050565b6200039a836200035d565b620003b2620003a98262000385565b848454620002f3565b825550505050565b600090565b620003c9620003ba565b620003d68184846200038f565b505050565b5b81811015620003fe57620003f2600082620003bf565b600181019050620003dc565b5050565b601f8211156200044d576200041781620002c1565b6200042284620002d6565b8101602085101562000432578190505b6200044a6200044185620002d6565b830182620003db565b50505b505050565b600082821c905092915050565b6000620004726000198460080262000452565b1980831691505092915050565b60006200048d83836200045f565b9150826002028217905092915050565b620004a88262000223565b67ffffffffffffffff811115620004c457620004c36200022e565b5b620004d082546200028c565b620004dd82828562000402565b600060209050601f83116001811462000515576000841562000500578287015190505b6200050c85826200047f565b8655506200057c565b601f1984166200052586620002c1565b60005b828110156200054f5784890151825560018201915060208501945060208101905062000528565b868310156200056f57848901516200056b601f8916826200045f565b8355505b6001600288020188555050505b505050505050565b600080fd5b600073ffffffffffffffffffffffffffffffffffffffff82169050919050565b6000620005b68262000589565b9050919050565b620005c881620005a9565b8114620005d457600080fd5b50565b600081519050620005e881620005bd565b92915050565b60006020828403121562000607576200060662000584565b5b60006200061784828501620005d7565b91505092915050565b6145b380620006306000396000f3fe608060405234801561001057600080fd5b50600436106101ce5760003560e01c8063510b515811610104578063bd85b039116100a2578063e985e9c511610071578063e985e9c5146105b0578063f242432a146105e0578063f5298aca146105fc578063f99cc96e14610618576101ce565b8063bd85b03914610516578063d0c2404514610546578063d539139314610576578063d547741f14610594576101ce565b8063830e28f6116100de578063830e28f61461047b57806391d14854146104ac578063a217fddf146104dc578063a22cb465146104fa576101ce565b8063510b5158146104115780636ab55fd9146104415780636b20c4541461045f576101ce565b80632f2ff15d11610171578063415c52521161014b578063415c52521461035157806341b8f75c146103815780634e1273f4146103b15780634f558e79146103e1576101ce565b80632f2ff15d146102e957806336568abe1461030557806338f0667514610321576101ce565b806318160ddd116101ad57806318160ddd146102635780631f7fdffa14610281578063248a9ca31461029d5780632eb2c2d6146102cd576101ce565b8062fdd58e146101d357806301ffc9a7146102035780630e89341c14610233575b600080fd5b6101ed60048036038101906101e89190612a90565b610636565b6040516101fa9190612adf565b60405180910390f35b61021d60048036038101906102189190612b52565b610690565b60405161022a9190612b9a565b60405180910390f35b61024d60048036038101906102489190612bb5565b6106a2565b60405161025a9190612c72565b60405180910390f35b61026b6106b4565b6040516102789190612adf565b60405180910390f35b61029b60048036038101906102969190612e91565b6106be565b005b6102b760048036038101906102b29190612f82565b6106fb565b6040516102c49190612fbe565b60405180910390f35b6102e760048036038101906102e29190612fd9565b61071b565b005b61030360048036038101906102fe91906130a8565b6107c3565b005b61031f600480360381019061031a91906130a8565b6107e5565b005b61033b60048036038101906103369190612bb5565b610860565b6040516103489190612adf565b60405180910390f35b61036b60048036038101906103669190613189565b610880565b6040516103789190612adf565b60405180910390f35b61039b60048036038101906103969190613244565b610950565b6040516103a891906133de565b60405180910390f35b6103cb60048036038101906103c691906134c3565b610abf565b6040516103d891906135d2565b60405180910390f35b6103fb60048036038101906103f69190612bb5565b610bc8565b6040516104089190612b9a565b60405180910390f35b61042b60048036038101906104269190612bb5565b610bdc565b6040516104389190613603565b60405180910390f35b610449610c0f565b6040516104569190612adf565b60405180910390f35b6104796004803603810190610474919061361e565b610c14565b005b61049560048036038101906104909190613244565b610cc0565b6040516104a39291906136a9565b60405180910390f35b6104c660048036038101906104c191906130a8565b610d01565b6040516104d39190612b9a565b60405180910390f35b6104e4610d6c565b6040516104f19190612fbe565b60405180910390f35b610514600480360381019061050f91906136fe565b610d73565b005b610530600480360381019061052b9190612bb5565b610d89565b60405161053d9190612adf565b60405180910390f35b610560600480360381019061055b919061373e565b610da6565b60405161056d9190612c72565b60405180910390f35b61057e610e09565b60405161058b9190612fbe565b60405180910390f35b6105ae60048036038101906105a991906130a8565b610e2d565b005b6105ca60048036038101906105c59190613873565b610e4f565b6040516105d79190612b9a565b60405180910390f35b6105fa60048036038101906105f591906138b3565b610ee3565b005b6106166004803603810190610611919061394a565b610f8b565b005b610620611037565b60405161062d9190612adf565b60405180910390f35b600080600083815260200190815260200160002060008473ffffffffffffffffffffffffffffffffffffffff1673ffffffffffffffffffffffffffffffffffffffff16815260200190815260200160002054905092915050565b600061069b8261103f565b9050919050565b60606106ad826110b9565b9050919050565b6000600754905090565b7f9f2df0fed2c77648de5860a4cc508cd0818c85b8b8a1ab4ceeef8d981c8956a66106e88161119e565b6106f4858585856111b2565b5050505050565b600060056000838152602001908152602001600020600101549050919050565b6000610725611238565b90508073ffffffffffffffffffffffffffffffffffffffff168673ffffffffffffffffffffffffffffffffffffffff161415801561076a57506107688682610e4f565b155b156107ae5780866040517fe237d9220000000000000000000000000000000000000000000000000000000081526004016107a592919061399d565b60405180910390fd5b6107bb8686868686611240565b505050505050565b6107cc826106fb565b6107d58161119e565b6107df8383611338565b50505050565b6107ed611238565b73ffffffffffffffffffffffffffffffffffffffff168173ffffffffffffffffffffffffffffffffffffffff1614610851576040517f6697b23200000000000000000000000000000000000000000000000000000000815260040160405180910390fd5b61085b828261142a565b505050565b600060086000838152602001908152602001600020805490509050919050565b60007f9f2df0fed2c77648de5860a4cc508cd0818c85b8b8a1ab4ceeef8d981c8956a66108ac8161119e565b6000600a5490506108c387826305f5e1008761151d565b6108cd81876115b6565b6108d7818661161b565b326009600083815260200190815260200160002060006101000a81548173ffffffffffffffffffffffffffffffffffffffff021916908373ffffffffffffffffffffffffffffffffffffffff1602179055506001600a600082825461093c91906139f5565b925050819055508092505050949350505050565b606060008267ffffffffffffffff81111561096e5761096d612c99565b5b6040519080825280602002602001820160405280156109a757816020015b6109946129ac565b81526020019060019003908161098c5790505b50905060005b6008600086815260200190815260200160002080549050811015610ab4576008600086815260200190815260200160002081815481106109f0576109ef613a29565b5b906000526020600020906002020160000154828281518110610a1557610a14613a29565b5b6020026020010151600060028110610a3057610a2f613a29565b5b602002018181525050600860008681526020019081526020016000208181548110610a5e57610a5d613a29565b5b906000526020600020906002020160010154828281518110610a8357610a82613a29565b5b6020026020010151600160028110610a9e57610a9d613a29565b5b60200201818152505080806001019150506109ad565b508091505092915050565b60608151835114610b0b57815183516040517f5b059991000000000000000000000000000000000000000000000000000000008152600401610b029291906136a9565b60405180910390fd5b6000835167ffffffffffffffff811115610b2857610b27612c99565b5b604051908082528060200260200182016040528015610b565781602001602082028036833780820191505090505b50905060005b8451811015610bbd57610b93610b7b828761187c90919063ffffffff16565b610b8e838761189090919063ffffffff16565b610636565b828281518110610ba657610ba5613a29565b5b602002602001018181525050806001019050610b5c565b508091505092915050565b600080610bd483610d89565b119050919050565b60096020528060005260406000206000915054906101000a900473ffffffffffffffffffffffffffffffffffffffff1681565b600681565b610c1c611238565b73ffffffffffffffffffffffffffffffffffffffff168373ffffffffffffffffffffffffffffffffffffffff1614158015610c655750610c6383610c5e611238565b610e4f565b155b15610cb057610c72611238565b836040517fe237d922000000000000000000000000000000000000000000000000000000008152600401610ca792919061399d565b60405180910390fd5b610cbb8383836118a4565b505050565b60086020528160005260406000208181548110610cdc57600080fd5b9060005260206000209060020201600091509150508060000154908060010154905082565b60006005600084815260200190815260200160002060000160008373ffffffffffffffffffffffffffffffffffffffff1673ffffffffffffffffffffffffffffffffffffffff16815260200190815260200160002060009054906101000a900460ff16905092915050565b6000801b81565b610d85610d7e611238565b8383611938565b5050565b600060066000838152602001908152602001600020549050919050565b6060610dde600a54888888888888604051602001610dca9796959493929190613dd3565b604051602081830303815290604052611aa8565b604051602001610dee9190613ef6565b60405160208183030381529060405290509695505050505050565b7f9f2df0fed2c77648de5860a4cc508cd0818c85b8b8a1ab4ceeef8d981c8956a681565b610e36826106fb565b610e3f8161119e565b610e49838361142a565b50505050565b6000600160008473ffffffffffffffffffffffffffffffffffffffff1673ffffffffffffffffffffffffffffffffffffffff16815260200190815260200160002060008373ffffffffffffffffffffffffffffffffffffffff1673ffffffffffffffffffffffffffffffffffffffff16815260200190815260200160002060009054906101000a900460ff16905092915050565b6000610eed611238565b90508073ffffffffffffffffffffffffffffffffffffffff168673ffffffffffffffffffffffffffffffffffffffff1614158015610f325750610f308682610e4f565b155b15610f765780866040517fe237d922000000000000000000000000000000000000000000000000000000008152600401610f6d92919061399d565b60405180910390fd5b610f838686868686611c1a565b505050505050565b610f93611238565b73ffffffffffffffffffffffffffffffffffffffff168373ffffffffffffffffffffffffffffffffffffffff1614158015610fdc5750610fda83610fd5611238565b610e4f565b155b1561102757610fe9611238565b836040517fe237d92200000000000000000000000000000000000000000000000000000000815260040161101e92919061399d565b60405180910390fd5b611032838383611d25565b505050565b6305f5e10081565b60007f7965db0b000000000000000000000000000000000000000000000000000000007bffffffffffffffffffffffffffffffffffffffffffffffffffffffff1916827bffffffffffffffffffffffffffffffffffffffffffffffffffffffff191614806110b257506110b182611dcc565b5b9050919050565b606060006004600084815260200190815260200160002080546110db90613f47565b80601f016020809104026020016040519081016040528092919081815260200182805461110790613f47565b80156111545780601f1061112957610100808354040283529160200191611154565b820191906000526020600020905b81548152906001019060200180831161113757829003601f168201915b5050505050905060008151116111725761116d83611eae565b611196565b600381604051602001611186929190614010565b6040516020818303038152906040525b915050919050565b6111af816111aa611238565b611f42565b50565b600073ffffffffffffffffffffffffffffffffffffffff168473ffffffffffffffffffffffffffffffffffffffff16036112245760006040517f57f447ce00000000000000000000000000000000000000000000000000000000815260040161121b9190613603565b60405180910390fd5b611232600085858585611f93565b50505050565b600033905090565b600073ffffffffffffffffffffffffffffffffffffffff168473ffffffffffffffffffffffffffffffffffffffff16036112b25760006040517f57f447ce0000000000000000000000000000000000000000000000000000000081526004016112a99190613603565b60405180910390fd5b600073ffffffffffffffffffffffffffffffffffffffff168573ffffffffffffffffffffffffffffffffffffffff16036113245760006040517f01a8351400000000000000000000000000000000000000000000000000000000815260040161131b9190613603565b60405180910390fd5b6113318585858585611f93565b5050505050565b60006113448383610d01565b61141f5760016005600085815260200190815260200160002060000160008473ffffffffffffffffffffffffffffffffffffffff1673ffffffffffffffffffffffffffffffffffffffff16815260200190815260200160002060006101000a81548160ff0219169083151502179055506113bc611238565b73ffffffffffffffffffffffffffffffffffffffff168273ffffffffffffffffffffffffffffffffffffffff16847f2f8788117e7eff1d82e926ec794901d17c78024a50270940304540a733656f0d60405160405180910390a460019050611424565b600090505b92915050565b60006114368383610d01565b156115125760006005600085815260200190815260200160002060000160008473ffffffffffffffffffffffffffffffffffffffff1673ffffffffffffffffffffffffffffffffffffffff16815260200190815260200160002060006101000a81548160ff0219169083151502179055506114af611238565b73ffffffffffffffffffffffffffffffffffffffff168273ffffffffffffffffffffffffffffffffffffffff16847ff6391f5c32d9c69d2a47ea670b442974b53935d1edc7fd64eb21e047a839171b60405160405180910390a460019050611517565b600090505b92915050565b600073ffffffffffffffffffffffffffffffffffffffff168473ffffffffffffffffffffffffffffffffffffffff160361158f5760006040517f57f447ce0000000000000000000000000000000000000000000000000000000081526004016115869190613603565b60405180910390fd5b60008061159c8585612045565b915091506115ae600087848487611f93565b505050505050565b806004600084815260200190815260200160002090816115d691906141cb565b50817f6bb7ff708619ba0610cba295a58592e0451dee2622938c8755667688daf3529b611602846106a2565b60405161160f9190612c72565b60405180910390a25050565b6116236129ce565b600082510361169e576040518060400160405280848152602001620f424081525090506008600084815260200190815260200160002081908060018154018082558091505060019003906000526020600020906002020160009091909190915060008201518160000155602082015181600101555050611877565b604051806040016040528084815260200162061a808152509050600860008481526020019081526020016000208190806001815401808255809150506001900390600052602060002090600202016000909190919091506000820151816000015560208201518160010155505060008251905060005b8181101561187457600084828151811061173157611730613a29565b5b6020026020010151905060005b6008600083815260200190815260200160002080549050811015611865576000604051806040016040528060086000868152602001908152602001600020848154811061178e5761178d613a29565b5b906000526020600020906002020160000154815260200186600560036008600089815260200190815260200160002087815481106117cf576117ce613a29565b5b9060005260206000209060020201600101546117eb919061429d565b6117f5919061430e565b6117ff919061430e565b8152509050600860008981526020019081526020016000208190806001815401808255809150506001900390600052602060002090600202016000909190919091506000820151816000015560208201518160010155505050808060010191505061173e565b50508080600101915050611714565b50505b505050565b600060208202602084010151905092915050565b600060208202602084010151905092915050565b600073ffffffffffffffffffffffffffffffffffffffff168373ffffffffffffffffffffffffffffffffffffffff16036119165760006040517f01a8351400000000000000000000000000000000000000000000000000000000815260040161190d9190613603565b60405180910390fd5b611933836000848460405180602001604052806000815250611f93565b505050565b600073ffffffffffffffffffffffffffffffffffffffff168273ffffffffffffffffffffffffffffffffffffffff16036119aa5760006040517fced3e1000000000000000000000000000000000000000000000000000000000081526004016119a19190613603565b60405180910390fd5b80600160008573ffffffffffffffffffffffffffffffffffffffff1673ffffffffffffffffffffffffffffffffffffffff16815260200190815260200160002060008473ffffffffffffffffffffffffffffffffffffffff1673ffffffffffffffffffffffffffffffffffffffff16815260200190815260200160002060006101000a81548160ff0219169083151502179055508173ffffffffffffffffffffffffffffffffffffffff168373ffffffffffffffffffffffffffffffffffffffff167f17307eab39ab6107e8899845ad3d59bd9653f200f220920489ca2b5937696c3183604051611a9b9190612b9a565b60405180910390a3505050565b60606000825103611aca57604051806020016040528060008152509050611c15565b600060405180606001604052806040815260200161453e6040913990506000600360028551611af991906139f5565b611b03919061430e565b6004611b0f919061429d565b67ffffffffffffffff811115611b2857611b27612c99565b5b6040519080825280601f01601f191660200182016040528015611b5a5781602001600182028036833780820191505090505b50905060018201602082018586518701602081018051600082525b82841015611bd0576003840193508351603f8160121c168701518653600186019550603f81600c1c168701518653600186019550603f8160061c168701518653600186019550603f8116870151865360018601955050611b75565b80825260038a510660018114611bed5760028114611c0057611c08565b603d6001870353603d6002870353611c08565b603d60018703535b5050505050505080925050505b919050565b600073ffffffffffffffffffffffffffffffffffffffff168473ffffffffffffffffffffffffffffffffffffffff1603611c8c5760006040517f57f447ce000000000000000000000000000000000000000000000000000000008152600401611c839190613603565b60405180910390fd5b600073ffffffffffffffffffffffffffffffffffffffff168573ffffffffffffffffffffffffffffffffffffffff1603611cfe5760006040517f01a83514000000000000000000000000000000000000000000000000000000008152600401611cf59190613603565b60405180910390fd5b600080611d0b8585612045565b91509150611d1c8787848487611f93565b50505050505050565b600073ffffffffffffffffffffffffffffffffffffffff168373ffffffffffffffffffffffffffffffffffffffff1603611d975760006040517f01a83514000000000000000000000000000000000000000000000000000000008152600401611d8e9190613603565b60405180910390fd5b600080611da48484612045565b91509150611dc5856000848460405180602001604052806000815250611f93565b5050505050565b60007fd9b67a26000000000000000000000000000000000000000000000000000000007bffffffffffffffffffffffffffffffffffffffffffffffffffffffff1916827bffffffffffffffffffffffffffffffffffffffffffffffffffffffff19161480611e9757507f0e89341c000000000000000000000000000000000000000000000000000000007bffffffffffffffffffffffffffffffffffffffffffffffffffffffff1916827bffffffffffffffffffffffffffffffffffffffffffffffffffffffff1916145b80611ea75750611ea682612075565b5b9050919050565b606060028054611ebd90613f47565b80601f0160208091040260200160405190810160405280929190818152602001828054611ee990613f47565b8015611f365780601f10611f0b57610100808354040283529160200191611f36565b820191906000526020600020905b815481529060010190602001808311611f1957829003601f168201915b50505050509050919050565b611f4c8282610d01565b611f8f5780826040517fe2517d3f000000000000000000000000000000000000000000000000000000008152600401611f8692919061433f565b60405180910390fd5b5050565b611f9f858585856120df565b600073ffffffffffffffffffffffffffffffffffffffff168473ffffffffffffffffffffffffffffffffffffffff161461203e576000611fdd611238565b9050600184510361202d576000611ffe60008661189090919063ffffffff16565b9050600061201660008661189090919063ffffffff16565b90506120268389898585896120f1565b505061203c565b61203b8187878787876122a5565b5b505b5050505050565b60608060405191506001825283602083015260408201905060018152826020820152604081016040529250929050565b60007f01ffc9a7000000000000000000000000000000000000000000000000000000007bffffffffffffffffffffffffffffffffffffffffffffffffffffffff1916827bffffffffffffffffffffffffffffffffffffffffffffffffffffffff1916149050919050565b6120eb84848484612459565b50505050565b60008473ffffffffffffffffffffffffffffffffffffffff163b111561229d578373ffffffffffffffffffffffffffffffffffffffff1663f23a6e6187878686866040518663ffffffff1660e01b81526004016121529594939291906143bd565b6020604051808303816000875af192505050801561218e57506040513d601f19601f8201168201806040525081019061218b919061442c565b60015b612212573d80600081146121be576040519150601f19603f3d011682016040523d82523d6000602084013e6121c3565b606091505b50600081510361220a57846040517f57f447ce0000000000000000000000000000000000000000000000000000000081526004016122019190613603565b60405180910390fd5b805181602001fd5b63f23a6e6160e01b7bffffffffffffffffffffffffffffffffffffffffffffffffffffffff1916817bffffffffffffffffffffffffffffffffffffffffffffffffffffffff19161461229b57846040517f57f447ce0000000000000000000000000000000000000000000000000000000081526004016122929190613603565b60405180910390fd5b505b505050505050565b60008473ffffffffffffffffffffffffffffffffffffffff163b1115612451578373ffffffffffffffffffffffffffffffffffffffff1663bc197c8187878686866040518663ffffffff1660e01b8152600401612306959493929190614459565b6020604051808303816000875af192505050801561234257506040513d601f19601f8201168201806040525081019061233f919061442c565b60015b6123c6573d8060008114612372576040519150601f19603f3d011682016040523d82523d6000602084013e612377565b606091505b5060008151036123be57846040517f57f447ce0000000000000000000000000000000000000000000000000000000081526004016123b59190613603565b60405180910390fd5b805181602001fd5b63bc197c8160e01b7bffffffffffffffffffffffffffffffffffffffffffffffffffffffff1916817bffffffffffffffffffffffffffffffffffffffffffffffffffffffff19161461244f57846040517f57f447ce0000000000000000000000000000000000000000000000000000000081526004016124469190613603565b60405180910390fd5b505b505050505050565b61246584848484612604565b600073ffffffffffffffffffffffffffffffffffffffff168473ffffffffffffffffffffffffffffffffffffffff160361253f576000805b83518110156125235760008382815181106124bb576124ba613a29565b5b6020026020010151905080600660008785815181106124dd576124dc613a29565b5b60200260200101518152602001908152602001600020600082825461250291906139f5565b92505081905550808361251591906139f5565b92505080600101905061249d565b50806007600082825461253691906139f5565b92505081905550505b600073ffffffffffffffffffffffffffffffffffffffff168373ffffffffffffffffffffffffffffffffffffffff16036125fe576000805b83518110156125eb57600083828151811061259557612594613a29565b5b6020026020010151905080600660008785815181106125b7576125b6613a29565b5b6020026020010151815260200190815260200160002060008282540392505081905550808301925050806001019050612577565b5080600760008282540392505081905550505b50505050565b805182511461264e57815181516040517f5b0599910000000000000000000000000000000000000000000000000000000081526004016126459291906136a9565b60405180910390fd5b6000612658611238565b905060005b835181101561286757600061267b828661189090919063ffffffff16565b90506000612692838661189090919063ffffffff16565b9050600073ffffffffffffffffffffffffffffffffffffffff168873ffffffffffffffffffffffffffffffffffffffff16146127bf57600080600084815260200190815260200160002060008a73ffffffffffffffffffffffffffffffffffffffff1673ffffffffffffffffffffffffffffffffffffffff1681526020019081526020016000205490508181101561276757888183856040517f03dee4c500000000000000000000000000000000000000000000000000000000815260040161275e94939291906144c1565b60405180910390fd5b81810360008085815260200190815260200160002060008b73ffffffffffffffffffffffffffffffffffffffff1673ffffffffffffffffffffffffffffffffffffffff16815260200190815260200160002081905550505b600073ffffffffffffffffffffffffffffffffffffffff168773ffffffffffffffffffffffffffffffffffffffff161461285a578060008084815260200190815260200160002060008973ffffffffffffffffffffffffffffffffffffffff1673ffffffffffffffffffffffffffffffffffffffff168152602001908152602001600020600082825461285291906139f5565b925050819055505b505080600101905061265d565b50600183510361292657600061288760008561189090919063ffffffff16565b9050600061289f60008561189090919063ffffffff16565b90508573ffffffffffffffffffffffffffffffffffffffff168773ffffffffffffffffffffffffffffffffffffffff168473ffffffffffffffffffffffffffffffffffffffff167fc3d58168c5ae7397731d063d5bbf3d657854427343f4c083240f7aacaa2d0f6285856040516129179291906136a9565b60405180910390a450506129a5565b8373ffffffffffffffffffffffffffffffffffffffff168573ffffffffffffffffffffffffffffffffffffffff168273ffffffffffffffffffffffffffffffffffffffff167f4a39dc06d4c0dbc64b70af90fd698a233a518aa5d07e595d983b8c0526c8f7fb868660405161299c929190614506565b60405180910390a45b5050505050565b6040518060400160405280600290602082028036833780820191505090505090565b604051806040016040528060008152602001600081525090565b6000604051905090565b600080fd5b600080fd5b600073ffffffffffffffffffffffffffffffffffffffff82169050919050565b6000612a27826129fc565b9050919050565b612a3781612a1c565b8114612a4257600080fd5b50565b600081359050612a5481612a2e565b92915050565b6000819050919050565b612a6d81612a5a565b8114612a7857600080fd5b50565b600081359050612a8a81612a64565b92915050565b60008060408385031215612aa757612aa66129f2565b5b6000612ab585828601612a45565b9250506020612ac685828601612a7b565b9150509250929050565b612ad981612a5a565b82525050565b6000602082019050612af46000830184612ad0565b92915050565b60007fffffffff0000000000000000000000000000000000000000000000000000000082169050919050565b612b2f81612afa565b8114612b3a57600080fd5b50565b600081359050612b4c81612b26565b92915050565b600060208284031215612b6857612b676129f2565b5b6000612b7684828501612b3d565b91505092915050565b60008115159050919050565b612b9481612b7f565b82525050565b6000602082019050612baf6000830184612b8b565b92915050565b600060208284031215612bcb57612bca6129f2565b5b6000612bd984828501612a7b565b91505092915050565b600081519050919050565b600082825260208201905092915050565b60005b83811015612c1c578082015181840152602081019050612c01565b60008484015250505050565b6000601f19601f8301169050919050565b6000612c4482612be2565b612c4e8185612bed565b9350612c5e818560208601612bfe565b612c6781612c28565b840191505092915050565b60006020820190508181036000830152612c8c8184612c39565b905092915050565b600080fd5b7f4e487b7100000000000000000000000000000000000000000000000000000000600052604160045260246000fd5b612cd182612c28565b810181811067ffffffffffffffff82111715612cf057612cef612c99565b5b80604052505050565b6000612d036129e8565b9050612d0f8282612cc8565b919050565b600067ffffffffffffffff821115612d2f57612d2e612c99565b5b602082029050602081019050919050565b600080fd5b6000612d58612d5384612d14565b612cf9565b90508083825260208201905060208402830185811115612d7b57612d7a612d40565b5b835b81811015612da45780612d908882612a7b565b845260208401935050602081019050612d7d565b5050509392505050565b600082601f830112612dc357612dc2612c94565b5b8135612dd3848260208601612d45565b91505092915050565b600080fd5b600067ffffffffffffffff821115612dfc57612dfb612c99565b5b612e0582612c28565b9050602081019050919050565b82818337600083830152505050565b6000612e34612e2f84612de1565b612cf9565b905082815260208101848484011115612e5057612e4f612ddc565b5b612e5b848285612e12565b509392505050565b600082601f830112612e7857612e77612c94565b5b8135612e88848260208601612e21565b91505092915050565b60008060008060808587031215612eab57612eaa6129f2565b5b6000612eb987828801612a45565b945050602085013567ffffffffffffffff811115612eda57612ed96129f7565b5b612ee687828801612dae565b935050604085013567ffffffffffffffff811115612f0757612f066129f7565b5b612f1387828801612dae565b925050606085013567ffffffffffffffff811115612f3457612f336129f7565b5b612f4087828801612e63565b91505092959194509250565b6000819050919050565b612f5f81612f4c565b8114612f6a57600080fd5b50565b600081359050612f7c81612f56565b92915050565b600060208284031215612f9857612f976129f2565b5b6000612fa684828501612f6d565b91505092915050565b612fb881612f4c565b82525050565b6000602082019050612fd36000830184612faf565b92915050565b600080600080600060a08688031215612ff557612ff46129f2565b5b600061300388828901612a45565b955050602061301488828901612a45565b945050604086013567ffffffffffffffff811115613035576130346129f7565b5b61304188828901612dae565b935050606086013567ffffffffffffffff811115613062576130616129f7565b5b61306e88828901612dae565b925050608086013567ffffffffffffffff81111561308f5761308e6129f7565b5b61309b88828901612e63565b9150509295509295909350565b600080604083850312156130bf576130be6129f2565b5b60006130cd85828601612f6d565b92505060206130de85828601612a45565b9150509250929050565b600067ffffffffffffffff82111561310357613102612c99565b5b61310c82612c28565b9050602081019050919050565b600061312c613127846130e8565b612cf9565b90508281526020810184848401111561314857613147612ddc565b5b613153848285612e12565b509392505050565b600082601f8301126131705761316f612c94565b5b8135613180848260208601613119565b91505092915050565b600080600080608085870312156131a3576131a26129f2565b5b60006131b187828801612a45565b945050602085013567ffffffffffffffff8111156131d2576131d16129f7565b5b6131de8782880161315b565b935050604085013567ffffffffffffffff8111156131ff576131fe6129f7565b5b61320b87828801612dae565b925050606085013567ffffffffffffffff81111561322c5761322b6129f7565b5b61323887828801612e63565b91505092959194509250565b6000806040838503121561325b5761325a6129f2565b5b600061326985828601612a7b565b925050602061327a85828601612a7b565b9150509250929050565b600081519050919050565b600082825260208201905092915050565b6000819050602082019050919050565b600060029050919050565b600081905092915050565b6000819050919050565b6132d981612a5a565b82525050565b60006132eb83836132d0565b60208301905092915050565b6000602082019050919050565b61330d816132b0565b61331781846132bb565b9250613322826132c6565b8060005b8381101561335357815161333a87826132df565b9650613345836132f7565b925050600181019050613326565b505050505050565b60006133678383613304565b60408301905092915050565b6000602082019050919050565b600061338b82613284565b613395818561328f565b93506133a0836132a0565b8060005b838110156133d15781516133b8888261335b565b97506133c383613373565b9250506001810190506133a4565b5085935050505092915050565b600060208201905081810360008301526133f88184613380565b905092915050565b600067ffffffffffffffff82111561341b5761341a612c99565b5b602082029050602081019050919050565b600061343f61343a84613400565b612cf9565b9050808382526020820190506020840283018581111561346257613461612d40565b5b835b8181101561348b57806134778882612a45565b845260208401935050602081019050613464565b5050509392505050565b600082601f8301126134aa576134a9612c94565b5b81356134ba84826020860161342c565b91505092915050565b600080604083850312156134da576134d96129f2565b5b600083013567ffffffffffffffff8111156134f8576134f76129f7565b5b61350485828601613495565b925050602083013567ffffffffffffffff811115613525576135246129f7565b5b61353185828601612dae565b9150509250929050565b600081519050919050565b600082825260208201905092915050565b6000819050602082019050919050565b6000602082019050919050565b600061357f8261353b565b6135898185613546565b935061359483613557565b8060005b838110156135c55781516135ac88826132df565b97506135b783613567565b925050600181019050613598565b5085935050505092915050565b600060208201905081810360008301526135ec8184613574565b905092915050565b6135fd81612a1c565b82525050565b600060208201905061361860008301846135f4565b92915050565b600080600060608486031215613637576136366129f2565b5b600061364586828701612a45565b935050602084013567ffffffffffffffff811115613666576136656129f7565b5b61367286828701612dae565b925050604084013567ffffffffffffffff811115613693576136926129f7565b5b61369f86828701612dae565b9150509250925092565b60006040820190506136be6000830185612ad0565b6136cb6020830184612ad0565b9392505050565b6136db81612b7f565b81146136e657600080fd5b50565b6000813590506136f8816136d2565b92915050565b60008060408385031215613715576137146129f2565b5b600061372385828601612a45565b9250506020613734858286016136e9565b9150509250929050565b60008060008060008060c0878903121561375b5761375a6129f2565b5b600087013567ffffffffffffffff811115613779576137786129f7565b5b61378589828a0161315b565b965050602087013567ffffffffffffffff8111156137a6576137a56129f7565b5b6137b289828a0161315b565b955050604087013567ffffffffffffffff8111156137d3576137d26129f7565b5b6137df89828a0161315b565b945050606087013567ffffffffffffffff811115613800576137ff6129f7565b5b61380c89828a0161315b565b935050608087013567ffffffffffffffff81111561382d5761382c6129f7565b5b61383989828a0161315b565b92505060a087013567ffffffffffffffff81111561385a576138596129f7565b5b61386689828a0161315b565b9150509295509295509295565b6000806040838503121561388a576138896129f2565b5b600061389885828601612a45565b92505060206138a985828601612a45565b9150509250929050565b600080600080600060a086880312156138cf576138ce6129f2565b5b60006138dd88828901612a45565b95505060206138ee88828901612a45565b94505060406138ff88828901612a7b565b935050606061391088828901612a7b565b925050608086013567ffffffffffffffff811115613931576139306129f7565b5b61393d88828901612e63565b9150509295509295909350565b600080600060608486031215613963576139626129f2565b5b600061397186828701612a45565b935050602061398286828701612a7b565b925050604061399386828701612a7b565b9150509250925092565b60006040820190506139b260008301856135f4565b6139bf60208301846135f4565b9392505050565b7f4e487b7100000000000000000000000000000000000000000000000000000000600052601160045260246000fd5b6000613a0082612a5a565b9150613a0b83612a5a565b9250828201905080821115613a2357613a226139c6565b5b92915050565b7f4e487b7100000000000000000000000000000000000000000000000000000000600052603260045260246000fd5b600081905092915050565b7f7b226e616d65223a20224934544b20646f63756d656e7420546f6b656e202300600082015250565b6000613a99601f83613a58565b9150613aa482613a63565b601f82019050919050565b6000819050919050565b613aca613ac582612a5a565b613aaf565b82525050565b7f2200000000000000000000000000000000000000000000000000000000000000600082015250565b6000613b06600183613a58565b9150613b1182613ad0565b600182019050919050565b7f2c226465736372697074696f6e223a20224120636f6e74656e742070726f706f60008201527f7365642062792061206d656d626572206f66207468652049344b54206e65747760208201527f6f726b20636f6d6d756e697479222c2022636f6e74656e74223a20226970667360408201527f3a2f2f0000000000000000000000000000000000000000000000000000000000606082015250565b6000613bc4606383613a58565b9150613bcf82613b1c565b606382019050919050565b6000613be582612be2565b613bef8185613a58565b9350613bff818560208601612bfe565b80840191505092915050565b7f2c2270726f70657274696573223a207b227469746c65223a2022000000000000600082015250565b6000613c41601a83613a58565b9150613c4c82613c0b565b601a82019050919050565b7f222c22617574686f7273223a2200000000000000000000000000000000000000600082015250565b6000613c8d600d83613a58565b9150613c9882613c57565b600d82019050919050565b7f222c226465736372697074696f6e223a20220000000000000000000000000000600082015250565b6000613cd9601283613a58565b9150613ce482613ca3565b601282019050919050565b7f222c2270726f6772616d6d65223a202200000000000000000000000000000000600082015250565b6000613d25601083613a58565b9150613d3082613cef565b601082019050919050565b7f222c2263617465676f7279223a20220000000000000000000000000000000000600082015250565b6000613d71600f83613a58565b9150613d7c82613d3b565b600f82019050919050565b7f227d7d0000000000000000000000000000000000000000000000000000000000600082015250565b6000613dbd600383613a58565b9150613dc882613d87565b600382019050919050565b6000613dde82613a8c565b9150613dea828a613ab9565b602082019150613df982613af9565b9150613e0482613bb7565b9150613e108289613bda565b9150613e1b82613af9565b9150613e2682613c34565b9150613e328288613bda565b9150613e3d82613c80565b9150613e498287613bda565b9150613e5482613ccc565b9150613e608286613bda565b9150613e6b82613d18565b9150613e778285613bda565b9150613e8282613d64565b9150613e8e8284613bda565b9150613e9982613db0565b915081905098975050505050505050565b7f646174613a6170706c69636174696f6e2f6a736f6e3b6261736536342c000000600082015250565b6000613ee0601d83613a58565b9150613eeb82613eaa565b601d82019050919050565b6000613f0182613ed3565b9150613f0d8284613bda565b915081905092915050565b7f4e487b7100000000000000000000000000000000000000000000000000000000600052602260045260246000fd5b60006002820490506001821680613f5f57607f821691505b602082108103613f7257613f71613f18565b5b50919050565b60008190508160005260206000209050919050565b60008154613f9a81613f47565b613fa48186613a58565b94506001821660008114613fbf5760018114613fd457614007565b60ff1983168652811515820286019350614007565b613fdd85613f78565b60005b83811015613fff57815481890152600182019150602081019050613fe0565b838801955050505b50505092915050565b600061401c8285613f8d565b91506140288284613bda565b91508190509392505050565b60006020601f8301049050919050565b600082821b905092915050565b6000600883026140817fffffffffffffffffffffffffffffffffffffffffffffffffffffffffffffffff82614044565b61408b8683614044565b95508019841693508086168417925050509392505050565b6000819050919050565b60006140c86140c36140be84612a5a565b6140a3565b612a5a565b9050919050565b6000819050919050565b6140e2836140ad565b6140f66140ee826140cf565b848454614051565b825550505050565b600090565b61410b6140fe565b6141168184846140d9565b505050565b5b8181101561413a5761412f600082614103565b60018101905061411c565b5050565b601f82111561417f5761415081613f78565b61415984614034565b81016020851015614168578190505b61417c61417485614034565b83018261411b565b50505b505050565b600082821c905092915050565b60006141a260001984600802614184565b1980831691505092915050565b60006141bb8383614191565b9150826002028217905092915050565b6141d482612be2565b67ffffffffffffffff8111156141ed576141ec612c99565b5b6141f78254613f47565b61420282828561413e565b600060209050601f8311600181146142355760008415614223578287015190505b61422d85826141af565b865550614295565b601f19841661424386613f78565b60005b8281101561426b57848901518255600182019150602085019450602081019050614246565b868310156142885784890151614284601f891682614191565b8355505b6001600288020188555050505b505050505050565b60006142a882612a5a565b91506142b383612a5a565b92508282026142c181612a5a565b915082820484148315176142d8576142d76139c6565b5b5092915050565b7f4e487b7100000000000000000000000000000000000000000000000000000000600052601260045260246000fd5b600061431982612a5a565b915061432483612a5a565b925082614334576143336142df565b5b828204905092915050565b600060408201905061435460008301856135f4565b6143616020830184612faf565b9392505050565b600081519050919050565b600082825260208201905092915050565b600061438f82614368565b6143998185614373565b93506143a9818560208601612bfe565b6143b281612c28565b840191505092915050565b600060a0820190506143d260008301886135f4565b6143df60208301876135f4565b6143ec6040830186612ad0565b6143f96060830185612ad0565b818103608083015261440b8184614384565b90509695505050505050565b60008151905061442681612b26565b92915050565b600060208284031215614442576144416129f2565b5b600061445084828501614417565b91505092915050565b600060a08201905061446e60008301886135f4565b61447b60208301876135f4565b818103604083015261448d8186613574565b905081810360608301526144a18185613574565b905081810360808301526144b58184614384565b90509695505050505050565b60006080820190506144d660008301876135f4565b6144e36020830186612ad0565b6144f06040830185612ad0565b6144fd6060830184612ad0565b95945050505050565b600060408201905081810360008301526145208185613574565b905081810360208301526145348184613574565b9050939250505056fe4142434445464748494a4b4c4d4e4f505152535455565758595a6162636465666768696a6b6c6d6e6f707172737475767778797a303132333435363738392b2fa26469706673582212200c6fbbe80823393c8fe092b617ea2df671d6f076f4b14081baf45e32eca1218f64736f6c63430008180033",
  "linkReferences": {},
  "deployedLinkReferences": {}
}