{
  "_format": "hh-sol-artifact-1",
  "contractName": "I4TKNetwork",
  "sourceName": "contracts/i4tKnetwork.sol",
  "abi": [
    {
      "inputs": [
        {
          "internalType": "address",
          "name": "_I4TKdocTokenAddr",
          "type": "address"
        }
      ],
      "stateMutability": "nonpayable",
      "type": "constructor"
    },
    {
      "inputs": [],
      "name": "AccessControlBadConfirmation",
      "type": "error"
    },
    {
      "inputs": [
        {
          "internalType": "address",
          "name": "account",
          "type": "address"
        },
        {
          "internalType": "bytes32",
          "name": "neededRole",
          "type": "bytes32"
        }
      ],
      "name": "AccessControlUnauthorizedAccount",
      "type": "error"
    },
    {
      "inputs": [
        {
          "internalType": "address",
          "name": "owner",
          "type": "address"
        }
      ],
      "name": "OwnableInvalidOwner",
      "type": "error"
    },
    {
      "inputs": [
        {
          "internalType": "address",
          "name": "account",
          "type": "address"
        }
      ],
      "name": "OwnableUnauthorizedAccount",
      "type": "error"
    },
    {
      "anonymous": false,
      "inputs": [
        {
          "indexed": true,
          "internalType": "address",
          "name": "previousOwner",
          "type": "address"
        },
        {
          "indexed": true,
          "internalType": "address",
          "name": "newOwner",
          "type": "address"
        }
      ],
      "name": "OwnershipTransferred",
      "type": "event"
    },
    {
      "anonymous": false,
      "inputs": [
        {
          "indexed": true,
          "internalType": "bytes32",
          "name": "role",
          "type": "bytes32"
        },
        {
          "indexed": true,
          "internalType": "bytes32",
          "name": "previousAdminRole",
          "type": "bytes32"
        },
        {
          "indexed": true,
          "internalType": "bytes32",
          "name": "newAdminRole",
          "type": "bytes32"
        }
      ],
      "name": "RoleAdminChanged",
      "type": "event"
    },
    {
      "anonymous": false,
      "inputs": [
        {
          "indexed": true,
          "internalType": "bytes32",
          "name": "role",
          "type": "bytes32"
        },
        {
          "indexed": true,
          "internalType": "address",
          "name": "account",
          "type": "address"
        },
        {
          "indexed": true,
          "internalType": "address",
          "name": "sender",
          "type": "address"
        }
      ],
      "name": "RoleGranted",
      "type": "event"
    },
    {
      "anonymous": false,
      "inputs": [
        {
          "indexed": true,
          "internalType": "bytes32",
          "name": "role",
          "type": "bytes32"
        },
        {
          "indexed": true,
          "internalType": "address",
          "name": "account",
          "type": "address"
        },
        {
          "indexed": true,
          "internalType": "address",
          "name": "sender",
          "type": "address"
        }
      ],
      "name": "RoleRevoked",
      "type": "event"
    },
    {
      "anonymous": false,
      "inputs": [
        {
          "indexed": false,
          "internalType": "address",
          "name": "_addr",
          "type": "address"
        },
        {
          "indexed": false,
          "internalType": "uint256",
          "name": "_tokenID",
          "type": "uint256"
        }
      ],
      "name": "contentProposed",
      "type": "event"
    },
    {
      "anonymous": false,
      "inputs": [
        {
          "indexed": false,
          "internalType": "address",
          "name": "_addr",
          "type": "address"
        },
        {
          "indexed": false,
          "internalType": "uint256",
          "name": "_tokenID",
          "type": "uint256"
        }
      ],
      "name": "contentValidation",
      "type": "event"
    },
    {
      "anonymous": false,
      "inputs": [
        {
          "indexed": false,
          "internalType": "address",
          "name": "_addr",
          "type": "address"
        },
        {
          "indexed": false,
          "internalType": "enum I4TKNetwork.Profiles",
          "name": "_profile",
          "type": "uint8"
        }
      ],
      "name": "memberRegistered",
      "type": "event"
    },
    {
      "inputs": [],
      "name": "ADMIN_ROLE",
      "outputs": [
        {
          "internalType": "bytes32",
          "name": "",
          "type": "bytes32"
        }
      ],
      "stateMutability": "view",
      "type": "function"
    },
    {
      "inputs": [],
      "name": "CONTRIBUTOR_ROLE",
      "outputs": [
        {
          "internalType": "bytes32",
          "name": "",
          "type": "bytes32"
        }
      ],
      "stateMutability": "view",
      "type": "function"
    },
    {
      "inputs": [],
      "name": "DEFAULT_ADMIN_ROLE",
      "outputs": [
        {
          "internalType": "bytes32",
          "name": "",
          "type": "bytes32"
        }
      ],
      "stateMutability": "view",
      "type": "function"
    },
    {
      "inputs": [],
      "name": "I4TKdocTokenAddr",
      "outputs": [
        {
          "internalType": "address",
          "name": "",
          "type": "address"
        }
      ],
      "stateMutability": "view",
      "type": "function"
    },
    {
      "inputs": [
        {
          "internalType": "address",
          "name": "",
          "type": "address"
        }
      ],
      "name": "Members",
      "outputs": [
        {
          "internalType": "enum I4TKNetwork.Profiles",
          "name": "profile",
          "type": "uint8"
        },
        {
          "internalType": "bool",
          "name": "isMember",
          "type": "bool"
        }
      ],
      "stateMutability": "view",
      "type": "function"
    },
    {
      "inputs": [],
      "name": "VALIDATOR_ROLE",
      "outputs": [
        {
          "internalType": "bytes32",
          "name": "",
          "type": "bytes32"
        }
      ],
      "stateMutability": "view",
      "type": "function"
    },
    {
      "inputs": [
        {
          "internalType": "enum I4TKNetwork.Profiles",
          "name": "profile",
          "type": "uint8"
        }
      ],
      "name": "getProfilesKeyByValue",
      "outputs": [
        {
          "internalType": "string",
          "name": "",
          "type": "string"
        }
      ],
      "stateMutability": "pure",
      "type": "function"
    },
    {
      "inputs": [],
      "name": "getProfilesKeys",
      "outputs": [
        {
          "internalType": "string",
          "name": "",
          "type": "string"
        },
        {
          "internalType": "string",
          "name": "",
          "type": "string"
        },
        {
          "internalType": "string",
          "name": "",
          "type": "string"
        }
      ],
      "stateMutability": "pure",
      "type": "function"
    },
    {
      "inputs": [
        {
          "internalType": "string",
          "name": "_profile",
          "type": "string"
        }
      ],
      "name": "getProfilesValueByKey",
      "outputs": [
        {
          "internalType": "enum I4TKNetwork.Profiles",
          "name": "",
          "type": "uint8"
        }
      ],
      "stateMutability": "pure",
      "type": "function"
    },
    {
      "inputs": [
        {
          "internalType": "bytes32",
          "name": "role",
          "type": "bytes32"
        }
      ],
      "name": "getRoleAdmin",
      "outputs": [
        {
          "internalType": "bytes32",
          "name": "",
          "type": "bytes32"
        }
      ],
      "stateMutability": "view",
      "type": "function"
    },
    {
      "inputs": [
        {
          "internalType": "bytes32",
          "name": "role",
          "type": "bytes32"
        },
        {
          "internalType": "address",
          "name": "account",
          "type": "address"
        }
      ],
      "name": "grantRole",
      "outputs": [],
      "stateMutability": "nonpayable",
      "type": "function"
    },
    {
      "inputs": [
        {
          "internalType": "bytes32",
          "name": "role",
          "type": "bytes32"
        },
        {
          "internalType": "address",
          "name": "account",
          "type": "address"
        }
      ],
      "name": "hasRole",
      "outputs": [
        {
          "internalType": "bool",
          "name": "",
          "type": "bool"
        }
      ],
      "stateMutability": "view",
      "type": "function"
    },
    {
      "inputs": [
        {
          "internalType": "uint256",
          "name": "",
          "type": "uint256"
        }
      ],
      "name": "nbValidation",
      "outputs": [
        {
          "internalType": "uint256",
          "name": "",
          "type": "uint256"
        }
      ],
      "stateMutability": "view",
      "type": "function"
    },
    {
      "inputs": [
        {
          "internalType": "address",
          "name": "",
          "type": "address"
        },
        {
          "internalType": "address",
          "name": "",
          "type": "address"
        },
        {
          "internalType": "uint256[]",
          "name": "",
          "type": "uint256[]"
        },
        {
          "internalType": "uint256[]",
          "name": "",
          "type": "uint256[]"
        },
        {
          "internalType": "bytes",
          "name": "",
          "type": "bytes"
        }
      ],
      "name": "onERC1155BatchReceived",
      "outputs": [
        {
          "internalType": "bytes4",
          "name": "",
          "type": "bytes4"
        }
      ],
      "stateMutability": "nonpayable",
      "type": "function"
    },
    {
      "inputs": [
        {
          "internalType": "address",
          "name": "",
          "type": "address"
        },
        {
          "internalType": "address",
          "name": "",
          "type": "address"
        },
        {
          "internalType": "uint256",
          "name": "",
          "type": "uint256"
        },
        {
          "internalType": "uint256",
          "name": "",
          "type": "uint256"
        },
        {
          "internalType": "bytes",
          "name": "",
          "type": "bytes"
        }
      ],
      "name": "onERC1155Received",
      "outputs": [
        {
          "internalType": "bytes4",
          "name": "",
          "type": "bytes4"
        }
      ],
      "stateMutability": "nonpayable",
      "type": "function"
    },
    {
      "inputs": [],
      "name": "owner",
      "outputs": [
        {
          "internalType": "address",
          "name": "",
          "type": "address"
        }
      ],
      "stateMutability": "view",
      "type": "function"
    },
    {
      "inputs": [
        {
          "internalType": "string",
          "name": "_tokenURI",
          "type": "string"
        },
        {
          "internalType": "uint256[]",
          "name": "_references",
          "type": "uint256[]"
        }
      ],
      "name": "proposeContent",
      "outputs": [],
      "stateMutability": "nonpayable",
      "type": "function"
    },
    {
      "inputs": [
        {
          "internalType": "address",
          "name": "_addr",
          "type": "address"
        },
        {
          "internalType": "enum I4TKNetwork.Profiles",
          "name": "_profile",
          "type": "uint8"
        }
      ],
      "name": "registerMember",
      "outputs": [],
      "stateMutability": "nonpayable",
      "type": "function"
    },
    {
      "inputs": [],
      "name": "renounceOwnership",
      "outputs": [],
      "stateMutability": "nonpayable",
      "type": "function"
    },
    {
      "inputs": [
        {
          "internalType": "bytes32",
          "name": "role",
          "type": "bytes32"
        },
        {
          "internalType": "address",
          "name": "callerConfirmation",
          "type": "address"
        }
      ],
      "name": "renounceRole",
      "outputs": [],
      "stateMutability": "nonpayable",
      "type": "function"
    },
    {
      "inputs": [
        {
          "internalType": "bytes32",
          "name": "role",
          "type": "bytes32"
        },
        {
          "internalType": "address",
          "name": "account",
          "type": "address"
        }
      ],
      "name": "revokeRole",
      "outputs": [],
      "stateMutability": "nonpayable",
      "type": "function"
    },
    {
      "inputs": [
        {
          "internalType": "uint256",
          "name": "",
          "type": "uint256"
        }
      ],
      "name": "status",
      "outputs": [
        {
          "internalType": "enum I4TKNetwork.Status",
          "name": "",
          "type": "uint8"
        }
      ],
      "stateMutability": "view",
      "type": "function"
    },
    {
      "inputs": [
        {
          "internalType": "bytes4",
          "name": "interfaceId",
          "type": "bytes4"
        }
      ],
      "name": "supportsInterface",
      "outputs": [
        {
          "internalType": "bool",
          "name": "",
          "type": "bool"
        }
      ],
      "stateMutability": "view",
      "type": "function"
    },
    {
      "inputs": [
        {
          "internalType": "address",
          "name": "newOwner",
          "type": "address"
        }
      ],
      "name": "transferOwnership",
      "outputs": [],
      "stateMutability": "nonpayable",
      "type": "function"
    },
    {
      "inputs": [
        {
          "internalType": "uint256",
          "name": "_tokenId",
          "type": "uint256"
        }
      ],
      "name": "validation",
      "outputs": [],
      "stateMutability": "nonpayable",
      "type": "function"
    },
    {
      "inputs": [
        {
          "internalType": "uint256",
          "name": "",
          "type": "uint256"
        }
      ],
      "name": "validator",
      "outputs": [
        {
          "internalType": "address",
          "name": "validatorAddr",
          "type": "address"
        },
        {
          "internalType": "bool",
          "name": "hasValidated",
          "type": "bool"
        }
      ],
      "stateMutability": "view",
      "type": "function"
    }
  ],
  "bytecode": "0x60806040523480156200001157600080fd5b50604051620036913803806200369183398181016040528101906200003791906200057f565b33600073ffffffffffffffffffffffffffffffffffffffff168173ffffffffffffffffffffffffffffffffffffffff1603620000ad5760006040517f1e4fbdf7000000000000000000000000000000000000000000000000000000008152600401620000a49190620005c2565b60405180910390fd5b620000be816200025760201b60201c565b5080600260006101000a81548173ffffffffffffffffffffffffffffffffffffffff021916908373ffffffffffffffffffffffffffffffffffffffff160217905550600260009054906101000a900473ffffffffffffffffffffffffffffffffffffffff16600360006101000a81548173ffffffffffffffffffffffffffffffffffffffff021916908373ffffffffffffffffffffffffffffffffffffffff160217905550620001786000801b336200031b60201b60201c565b50620001ab7fa49807205ce4d355092ef5a8a18f56e8913cf4a201fbe287825b095693c21775336200031b60201b60201c565b50620001fe7fe2889e7308860b3fe8df0daa86fccfea4d71e43776719a57be28cf90b6db81e97fa49807205ce4d355092ef5a8a18f56e8913cf4a201fbe287825b095693c217756200041e60201b60201c565b620002507f21702c8af46127c7fa207f89d0b0a8441bb32959a0ac7df790e9ab1a25c989267fa49807205ce4d355092ef5a8a18f56e8913cf4a201fbe287825b095693c217756200041e60201b60201c565b50620005df565b60008060009054906101000a900473ffffffffffffffffffffffffffffffffffffffff169050816000806101000a81548173ffffffffffffffffffffffffffffffffffffffff021916908373ffffffffffffffffffffffffffffffffffffffff1602179055508173ffffffffffffffffffffffffffffffffffffffff168173ffffffffffffffffffffffffffffffffffffffff167f8be0079c531659141344cd1fd0a4f28419497f9722a3daafe3b4186f6b6457e060405160405180910390a35050565b60006200032f83836200048260201b60201c565b6200041357600180600085815260200190815260200160002060000160008473ffffffffffffffffffffffffffffffffffffffff1673ffffffffffffffffffffffffffffffffffffffff16815260200190815260200160002060006101000a81548160ff021916908315150217905550620003af620004ed60201b60201c565b73ffffffffffffffffffffffffffffffffffffffff168273ffffffffffffffffffffffffffffffffffffffff16847f2f8788117e7eff1d82e926ec794901d17c78024a50270940304540a733656f0d60405160405180910390a46001905062000418565b600090505b92915050565b60006200043183620004f560201b60201c565b90508160016000858152602001908152602001600020600101819055508181847fbd79b86ffe0ab8e8776151514217cd7cacd52c909f66475c3af44e129f0b00ff60405160405180910390a4505050565b60006001600084815260200190815260200160002060000160008373ffffffffffffffffffffffffffffffffffffffff1673ffffffffffffffffffffffffffffffffffffffff16815260200190815260200160002060009054906101000a900460ff16905092915050565b600033905090565b600060016000838152602001908152602001600020600101549050919050565b600080fd5b600073ffffffffffffffffffffffffffffffffffffffff82169050919050565b600062000547826200051a565b9050919050565b62000559816200053a565b81146200056557600080fd5b50565b60008151905062000579816200054e565b92915050565b60006020828403121562000598576200059762000515565b5b6000620005a88482850162000568565b91505092915050565b620005bc816200053a565b82525050565b6000602082019050620005d96000830184620005b1565b92915050565b6130a280620005ef6000396000f3fe608060405234801561001057600080fd5b506004361061018e5760003560e01c806391d14854116100de578063d547741f11610097578063f23a6e6111610071578063f23a6e6114610499578063f2fde38b146104c9578063fa286865146104e5578063fd0f0166146105165761018e565b8063d547741f1461043f578063e0fefdce1461045b578063eafb79e21461047b5761018e565b806391d1485414610357578063a217fddf14610387578063a4cdb2eb146103a5578063b72bedd0146103d5578063bc197c81146103f1578063c49baebe146104215761018e565b806342d21ef71161014b57806372520eb31161012557806372520eb3146102e1578063753be9da146102fd57806375b238fc1461031b5780638da5cb5b146103395761018e565b806342d21ef714610277578063501b3d96146102a7578063715018a6146102d75761018e565b806301ffc9a71461019357806303226b82146101c3578063248a9ca3146101f35780632f2ff15d1461022357806336568abe1461023f578063398f332f1461025b575b600080fd5b6101ad60048036038101906101a89190611ea2565b610547565b6040516101ba9190611eea565b60405180910390f35b6101dd60048036038101906101d89190611f2a565b610579565b6040516101ea9190611fe7565b60405180910390f35b61020d6004803603810190610208919061203f565b6106cd565b60405161021a919061207b565b60405180910390f35b61023d600480360381019061023891906120f4565b6106ed565b005b610259600480360381019061025491906120f4565b61070f565b005b61027560048036038101906102709190612134565b61078a565b005b610291600480360381019061028c91906121aa565b610cb6565b60405161029e919061224e565b60405180910390f35b6102c160048036038101906102bc919061239e565b610cd6565b6040516102ce919061242f565b60405180910390f35b6102df610de4565b005b6102fb60048036038101906102f69190612512565b610df8565b005b610305610f67565b6040516103129190612599565b60405180910390f35b610323610f8d565b604051610330919061207b565b60405180910390f35b610341610fb1565b60405161034e9190612599565b60405180910390f35b610371600480360381019061036c91906120f4565b610fda565b60405161037e9190611eea565b60405180910390f35b61038f611045565b60405161039c919061207b565b60405180910390f35b6103bf60048036038101906103ba91906121aa565b61104c565b6040516103cc91906125c3565b60405180910390f35b6103ef60048036038101906103ea91906121aa565b611064565b005b61040b6004803603810190610406919061267f565b61124d565b604051610418919061275d565b60405180910390f35b610429611262565b604051610436919061207b565b60405180910390f35b610459600480360381019061045491906120f4565b611286565b005b6104636112a8565b60405161047293929190612778565b60405180910390f35b61048361135a565b604051610490919061207b565b60405180910390f35b6104b360048036038101906104ae91906127c4565b61137e565b6040516104c0919061275d565b60405180910390f35b6104e360048036038101906104de919061285b565b611393565b005b6104ff60048036038101906104fa91906121aa565b611419565b60405161050d929190612888565b60405180910390f35b610530600480360381019061052b919061285b565b61146a565b60405161053e9291906128b1565b60405180910390f35b6000610552826114a8565b80610562575061056182611522565b5b80610572575061057182611522565b5b9050919050565b606081600281111561058e5761058d6121d7565b5b600060028111156105a2576105a16121d7565b5b036105e4576040518060400160405280600a81526020017f526573656172636865720000000000000000000000000000000000000000000081525090506106c8565b8160028111156105f7576105f66121d7565b5b6001600281111561060b5761060a6121d7565b5b0361064d576040518060400160405280600481526020017f4c6162730000000000000000000000000000000000000000000000000000000081525090506106c8565b8160028111156106605761065f6121d7565b5b600280811115610673576106726121d7565b5b036106b5576040518060400160405280600581526020017f41646d696e00000000000000000000000000000000000000000000000000000081525090506106c8565b6040518060200160405280600081525090505b919050565b600060016000838152602001908152602001600020600101549050919050565b6106f6826106cd565b6106ff8161159c565b61070983836115b0565b50505050565b6107176116a1565b73ffffffffffffffffffffffffffffffffffffffff168173ffffffffffffffffffffffffffffffffffffffff161461077b576040517f6697b23200000000000000000000000000000000000000000000000000000000815260040160405180910390fd5b61078582826116a9565b505050565b7fa49807205ce4d355092ef5a8a18f56e8913cf4a201fbe287825b095693c217756107b48161159c565b600060028111156107c8576107c76121d7565b5b8260028111156107db576107da6121d7565b5b148061080b5750600160028111156107f6576107f56121d7565b5b826002811115610809576108086121d7565b5b145b806108395750600280811115610824576108236121d7565b5b826002811115610837576108366121d7565b5b145b610878576040517f08c379a000000000000000000000000000000000000000000000000000000000815260040161086f90612926565b60405180910390fd5b6000600281111561088c5761088b6121d7565b5b82600281111561089f5761089e6121d7565b5b0361097e576108ce7fe2889e7308860b3fe8df0daa86fccfea4d71e43776719a57be28cf90b6db81e9846106ed565b600360009054906101000a900473ffffffffffffffffffffffffffffffffffffffff1673ffffffffffffffffffffffffffffffffffffffff16632f2ff15d7f9f2df0fed2c77648de5860a4cc508cd0818c85b8b8a1ab4ceeef8d981c8956a6856040518363ffffffff1660e01b815260040161094b929190612946565b600060405180830381600087803b15801561096557600080fd5b505af1158015610979573d6000803e3d6000fd5b505050505b60016002811115610992576109916121d7565b5b8260028111156109a5576109a46121d7565b5b03610aae576109d47fe2889e7308860b3fe8df0daa86fccfea4d71e43776719a57be28cf90b6db81e9846106ed565b6109fe7f21702c8af46127c7fa207f89d0b0a8441bb32959a0ac7df790e9ab1a25c98926846106ed565b600360009054906101000a900473ffffffffffffffffffffffffffffffffffffffff1673ffffffffffffffffffffffffffffffffffffffff16632f2ff15d7f9f2df0fed2c77648de5860a4cc508cd0818c85b8b8a1ab4ceeef8d981c8956a6856040518363ffffffff1660e01b8152600401610a7b929190612946565b600060405180830381600087803b158015610a9557600080fd5b505af1158015610aa9573d6000803e3d6000fd5b505050505b600280811115610ac157610ac06121d7565b5b826002811115610ad457610ad36121d7565b5b03610bb357610b037fa49807205ce4d355092ef5a8a18f56e8913cf4a201fbe287825b095693c21775846106ed565b600360009054906101000a900473ffffffffffffffffffffffffffffffffffffffff1673ffffffffffffffffffffffffffffffffffffffff16632f2ff15d7f1effbbff9c66c5e59634f24fe842750c60d18891155c32dd155fc2d661a4c86d856040518363ffffffff1660e01b8152600401610b80929190612946565b600060405180830381600087803b158015610b9a57600080fd5b505af1158015610bae573d6000803e3d6000fd5b505050505b81600560008573ffffffffffffffffffffffffffffffffffffffff1673ffffffffffffffffffffffffffffffffffffffff16815260200190815260200160002060000160006101000a81548160ff02191690836002811115610c1857610c176121d7565b5b02179055506001600560008573ffffffffffffffffffffffffffffffffffffffff1673ffffffffffffffffffffffffffffffffffffffff16815260200190815260200160002060000160016101000a81548160ff0219169083151502179055507fd27989f63154cbe8ce720ef21b7f31d1d07a6e94b29a022d49639a85becf6ddb8383604051610ca992919061296f565b60405180910390a1505050565b60066020528060005260406000206000915054906101000a900460ff1681565b60007fb7574f44139a2269a58d8ea35f879ab6fce8bf7505ad0717e10d89bf739e760682604051602001610d0a91906129d4565b6040516020818303038152906040528051906020012003610d2e5760009050610ddf565b7f9b10e69a0f69b6444ceff8194336f6a5bcf90a3fbf06cb1e9a6d3f60cb57af2882604051602001610d6091906129d4565b6040516020818303038152906040528051906020012003610d845760019050610ddf565b7fa729ef4e25027bc652fc8b5c4d1d902947361fa7c8e7b4905e877823f27331b382604051602001610db691906129d4565b6040516020818303038152906040528051906020012003610dda5760029050610ddf565b600080fd5b919050565b610dec61179c565b610df66000611823565b565b7fe2889e7308860b3fe8df0daa86fccfea4d71e43776719a57be28cf90b6db81e9610e228161159c565b606060003390506000600360009054906101000a900473ffffffffffffffffffffffffffffffffffffffff1673ffffffffffffffffffffffffffffffffffffffff1663415c5252308888876040518563ffffffff1660e01b8152600401610e8c9493929190612afe565b6020604051808303816000875af1158015610eab573d6000803e3d6000fd5b505050506040513d601f19601f82011682018060405250810190610ecf9190612b6d565b90506000600760008381526020019081526020016000208190555060006006600083815260200190815260200160002060006101000a81548160ff02191690836003811115610f2157610f206121d7565b5b02179055507f8b59ef5704f7adb4d31af3184884774aaaca6f7d30a67a814108cac3b731c47b8282604051610f57929190612b9a565b60405180910390a1505050505050565b600260009054906101000a900473ffffffffffffffffffffffffffffffffffffffff1681565b7fa49807205ce4d355092ef5a8a18f56e8913cf4a201fbe287825b095693c2177581565b60008060009054906101000a900473ffffffffffffffffffffffffffffffffffffffff16905090565b60006001600084815260200190815260200160002060000160008373ffffffffffffffffffffffffffffffffffffffff1673ffffffffffffffffffffffffffffffffffffffff16815260200190815260200160002060009054906101000a900460ff16905092915050565b6000801b81565b60076020528060005260406000206000915090505481565b7f21702c8af46127c7fa207f89d0b0a8441bb32959a0ac7df790e9ab1a25c9892661108e8161159c565b6004600083815260200190815260200160002060000160149054906101000a900460ff16156110f2576040517f08c379a00000000000000000000000000000000000000000000000000000000081526004016110e990612c35565b60405180910390fd5b60076000838152602001908152602001600020600081548092919061111690612c84565b9190505550611123611de2565b33816000019073ffffffffffffffffffffffffffffffffffffffff16908173ffffffffffffffffffffffffffffffffffffffff16815250506001816020019015159081151581525050806004600085815260200190815260200160002060008201518160000160006101000a81548173ffffffffffffffffffffffffffffffffffffffff021916908373ffffffffffffffffffffffffffffffffffffffff16021790555060208201518160000160146101000a81548160ff021916908315150217905550905050600460076000858152602001908152602001600020540361120f5761120e836118e7565b5b7f658cda0e7f11dba2fc7189a9141b4545fba5661ac807d979aa633dcdf419fefe3384604051611240929190612b9a565b60405180910390a1505050565b600063bc197c8160e01b905095945050505050565b7f21702c8af46127c7fa207f89d0b0a8441bb32959a0ac7df790e9ab1a25c9892681565b61128f826106cd565b6112988161159c565b6112a283836116a9565b50505050565b60608060606040518060400160405280600a81526020017f52657365617263686572000000000000000000000000000000000000000000008152506040518060400160405280600481526020017f6c616273000000000000000000000000000000000000000000000000000000008152506040518060400160405280600581526020017f41646d696e000000000000000000000000000000000000000000000000000000815250925092509250909192565b7fe2889e7308860b3fe8df0daa86fccfea4d71e43776719a57be28cf90b6db81e981565b600063f23a6e6160e01b905095945050505050565b61139b61179c565b600073ffffffffffffffffffffffffffffffffffffffff168173ffffffffffffffffffffffffffffffffffffffff160361140d5760006040517f1e4fbdf70000000000000000000000000000000000000000000000000000000081526004016114049190612599565b60405180910390fd5b61141681611823565b50565b60046020528060005260406000206000915090508060000160009054906101000a900473ffffffffffffffffffffffffffffffffffffffff16908060000160149054906101000a900460ff16905082565b60056020528060005260406000206000915090508060000160009054906101000a900460ff16908060000160019054906101000a900460ff16905082565b60007f7965db0b000000000000000000000000000000000000000000000000000000007bffffffffffffffffffffffffffffffffffffffffffffffffffffffff1916827bffffffffffffffffffffffffffffffffffffffffffffffffffffffff1916148061151b575061151a82611d27565b5b9050919050565b60007f4e2312e0000000000000000000000000000000000000000000000000000000007bffffffffffffffffffffffffffffffffffffffffffffffffffffffff1916827bffffffffffffffffffffffffffffffffffffffffffffffffffffffff191614806115955750611594826114a8565b5b9050919050565b6115ad816115a86116a1565b611d91565b50565b60006115bc8383610fda565b61169657600180600085815260200190815260200160002060000160008473ffffffffffffffffffffffffffffffffffffffff1673ffffffffffffffffffffffffffffffffffffffff16815260200190815260200160002060006101000a81548160ff0219169083151502179055506116336116a1565b73ffffffffffffffffffffffffffffffffffffffff168273ffffffffffffffffffffffffffffffffffffffff16847f2f8788117e7eff1d82e926ec794901d17c78024a50270940304540a733656f0d60405160405180910390a46001905061169b565b600090505b92915050565b600033905090565b60006116b58383610fda565b156117915760006001600085815260200190815260200160002060000160008473ffffffffffffffffffffffffffffffffffffffff1673ffffffffffffffffffffffffffffffffffffffff16815260200190815260200160002060006101000a81548160ff02191690831515021790555061172e6116a1565b73ffffffffffffffffffffffffffffffffffffffff168273ffffffffffffffffffffffffffffffffffffffff16847ff6391f5c32d9c69d2a47ea670b442974b53935d1edc7fd64eb21e047a839171b60405160405180910390a460019050611796565b600090505b92915050565b6117a46116a1565b73ffffffffffffffffffffffffffffffffffffffff166117c2610fb1565b73ffffffffffffffffffffffffffffffffffffffff1614611821576117e56116a1565b6040517f118cdaa70000000000000000000000000000000000000000000000000000000081526004016118189190612599565b60405180910390fd5b565b60008060009054906101000a900473ffffffffffffffffffffffffffffffffffffffff169050816000806101000a81548173ffffffffffffffffffffffffffffffffffffffff021916908373ffffffffffffffffffffffffffffffffffffffff1602179055508173ffffffffffffffffffffffffffffffffffffffff168173ffffffffffffffffffffffffffffffffffffffff167f8be0079c531659141344cd1fd0a4f28419497f9722a3daafe3b4186f6b6457e060405160405180910390a35050565b7f21702c8af46127c7fa207f89d0b0a8441bb32959a0ac7df790e9ab1a25c989266119118161159c565b6000600360009054906101000a900473ffffffffffffffffffffffffffffffffffffffff1673ffffffffffffffffffffffffffffffffffffffff166338f06675846040518263ffffffff1660e01b815260040161196e91906125c3565b602060405180830381865afa15801561198b573d6000803e3d6000fd5b505050506040513d601f19601f820116820180604052508101906119af9190612b6d565b905060008167ffffffffffffffff8111156119cd576119cc612273565b5b604051908082528060200260200182016040528015611a0657816020015b6119f3611e14565b8152602001906001900390816119eb5790505b509050600360009054906101000a900473ffffffffffffffffffffffffffffffffffffffff1673ffffffffffffffffffffffffffffffffffffffff166341b8f75c85846040518363ffffffff1660e01b8152600401611a66929190612ccc565b600060405180830381865afa158015611a83573d6000803e3d6000fd5b505050506040513d6000823e3d601f19601f82011682018060405250810190611aac9190612e69565b905060005b8151811015611d20576000828281518110611acf57611ace612eb2565b5b6020026020010151600060028110611aea57611ae9612eb2565b5b602002015190506000600360009054906101000a900473ffffffffffffffffffffffffffffffffffffffff1673ffffffffffffffffffffffffffffffffffffffff1663510b5158836040518263ffffffff1660e01b8152600401611b4e91906125c3565b602060405180830381865afa158015611b6b573d6000803e3d6000fd5b505050506040513d601f19601f82011682018060405250810190611b8f9190612ef6565b90506000620f4240858581518110611baa57611ba9612eb2565b5b6020026020010151600160028110611bc557611bc4612eb2565b5b6020020151600360009054906101000a900473ffffffffffffffffffffffffffffffffffffffff1673ffffffffffffffffffffffffffffffffffffffff1662fdd58e30876040518363ffffffff1660e01b8152600401611c26929190612b9a565b602060405180830381865afa158015611c43573d6000803e3d6000fd5b505050506040513d601f19601f82011682018060405250810190611c679190612b6d565b611c719190612f23565b611c7b9190612f94565b9050600360009054906101000a900473ffffffffffffffffffffffffffffffffffffffff1673ffffffffffffffffffffffffffffffffffffffff1663f242432a308486856040518563ffffffff1660e01b8152600401611cde9493929190612feb565b600060405180830381600087803b158015611cf857600080fd5b505af1158015611d0c573d6000803e3d6000fd5b505050505050508080600101915050611ab1565b5050505050565b60007f01ffc9a7000000000000000000000000000000000000000000000000000000007bffffffffffffffffffffffffffffffffffffffffffffffffffffffff1916827bffffffffffffffffffffffffffffffffffffffffffffffffffffffff1916149050919050565b611d9b8282610fda565b611dde5780826040517fe2517d3f000000000000000000000000000000000000000000000000000000008152600401611dd5929190613043565b60405180910390fd5b5050565b6040518060400160405280600073ffffffffffffffffffffffffffffffffffffffff1681526020016000151581525090565b6040518060400160405280600290602082028036833780820191505090505090565b6000604051905090565b600080fd5b600080fd5b60007fffffffff0000000000000000000000000000000000000000000000000000000082169050919050565b611e7f81611e4a565b8114611e8a57600080fd5b50565b600081359050611e9c81611e76565b92915050565b600060208284031215611eb857611eb7611e40565b5b6000611ec684828501611e8d565b91505092915050565b60008115159050919050565b611ee481611ecf565b82525050565b6000602082019050611eff6000830184611edb565b92915050565b60038110611f1257600080fd5b50565b600081359050611f2481611f05565b92915050565b600060208284031215611f4057611f3f611e40565b5b6000611f4e84828501611f15565b91505092915050565b600081519050919050565b600082825260208201905092915050565b60005b83811015611f91578082015181840152602081019050611f76565b60008484015250505050565b6000601f19601f8301169050919050565b6000611fb982611f57565b611fc38185611f62565b9350611fd3818560208601611f73565b611fdc81611f9d565b840191505092915050565b600060208201905081810360008301526120018184611fae565b905092915050565b6000819050919050565b61201c81612009565b811461202757600080fd5b50565b60008135905061203981612013565b92915050565b60006020828403121561205557612054611e40565b5b60006120638482850161202a565b91505092915050565b61207581612009565b82525050565b6000602082019050612090600083018461206c565b92915050565b600073ffffffffffffffffffffffffffffffffffffffff82169050919050565b60006120c182612096565b9050919050565b6120d1816120b6565b81146120dc57600080fd5b50565b6000813590506120ee816120c8565b92915050565b6000806040838503121561210b5761210a611e40565b5b60006121198582860161202a565b925050602061212a858286016120df565b9150509250929050565b6000806040838503121561214b5761214a611e40565b5b6000612159858286016120df565b925050602061216a85828601611f15565b9150509250929050565b6000819050919050565b61218781612174565b811461219257600080fd5b50565b6000813590506121a48161217e565b92915050565b6000602082840312156121c0576121bf611e40565b5b60006121ce84828501612195565b91505092915050565b7f4e487b7100000000000000000000000000000000000000000000000000000000600052602160045260246000fd5b60048110612217576122166121d7565b5b50565b600081905061222882612206565b919050565b60006122388261221a565b9050919050565b6122488161222d565b82525050565b6000602082019050612263600083018461223f565b92915050565b600080fd5b600080fd5b7f4e487b7100000000000000000000000000000000000000000000000000000000600052604160045260246000fd5b6122ab82611f9d565b810181811067ffffffffffffffff821117156122ca576122c9612273565b5b80604052505050565b60006122dd611e36565b90506122e982826122a2565b919050565b600067ffffffffffffffff82111561230957612308612273565b5b61231282611f9d565b9050602081019050919050565b82818337600083830152505050565b600061234161233c846122ee565b6122d3565b90508281526020810184848401111561235d5761235c61226e565b5b61236884828561231f565b509392505050565b600082601f83011261238557612384612269565b5b813561239584826020860161232e565b91505092915050565b6000602082840312156123b4576123b3611e40565b5b600082013567ffffffffffffffff8111156123d2576123d1611e45565b5b6123de84828501612370565b91505092915050565b600381106123f8576123f76121d7565b5b50565b6000819050612409826123e7565b919050565b6000612419826123fb565b9050919050565b6124298161240e565b82525050565b60006020820190506124446000830184612420565b92915050565b600067ffffffffffffffff82111561246557612464612273565b5b602082029050602081019050919050565b600080fd5b600061248e6124898461244a565b6122d3565b905080838252602082019050602084028301858111156124b1576124b0612476565b5b835b818110156124da57806124c68882612195565b8452602084019350506020810190506124b3565b5050509392505050565b600082601f8301126124f9576124f8612269565b5b813561250984826020860161247b565b91505092915050565b6000806040838503121561252957612528611e40565b5b600083013567ffffffffffffffff81111561254757612546611e45565b5b61255385828601612370565b925050602083013567ffffffffffffffff81111561257457612573611e45565b5b612580858286016124e4565b9150509250929050565b612593816120b6565b82525050565b60006020820190506125ae600083018461258a565b92915050565b6125bd81612174565b82525050565b60006020820190506125d860008301846125b4565b92915050565b600067ffffffffffffffff8211156125f9576125f8612273565b5b61260282611f9d565b9050602081019050919050565b600061262261261d846125de565b6122d3565b90508281526020810184848401111561263e5761263d61226e565b5b61264984828561231f565b509392505050565b600082601f83011261266657612665612269565b5b813561267684826020860161260f565b91505092915050565b600080600080600060a0868803121561269b5761269a611e40565b5b60006126a9888289016120df565b95505060206126ba888289016120df565b945050604086013567ffffffffffffffff8111156126db576126da611e45565b5b6126e7888289016124e4565b935050606086013567ffffffffffffffff81111561270857612707611e45565b5b612714888289016124e4565b925050608086013567ffffffffffffffff81111561273557612734611e45565b5b61274188828901612651565b9150509295509295909350565b61275781611e4a565b82525050565b6000602082019050612772600083018461274e565b92915050565b600060608201905081810360008301526127928186611fae565b905081810360208301526127a68185611fae565b905081810360408301526127ba8184611fae565b9050949350505050565b600080600080600060a086880312156127e0576127df611e40565b5b60006127ee888289016120df565b95505060206127ff888289016120df565b945050604061281088828901612195565b935050606061282188828901612195565b925050608086013567ffffffffffffffff81111561284257612841611e45565b5b61284e88828901612651565b9150509295509295909350565b60006020828403121561287157612870611e40565b5b600061287f848285016120df565b91505092915050565b600060408201905061289d600083018561258a565b6128aa6020830184611edb565b9392505050565b60006040820190506128c66000830185612420565b6128d36020830184611edb565b9392505050565b7f50726f66696c65206e616d65206e6f74207265636f676e697a65642100000000600082015250565b6000612910601c83611f62565b915061291b826128da565b602082019050919050565b6000602082019050818103600083015261293f81612903565b9050919050565b600060408201905061295b600083018561206c565b612968602083018461258a565b9392505050565b6000604082019050612984600083018561258a565b6129916020830184612420565b9392505050565b600081905092915050565b60006129ae82611f57565b6129b88185612998565b93506129c8818560208601611f73565b80840191505092915050565b60006129e082846129a3565b915081905092915050565b600081519050919050565b600082825260208201905092915050565b6000819050602082019050919050565b612a2081612174565b82525050565b6000612a328383612a17565b60208301905092915050565b6000602082019050919050565b6000612a56826129eb565b612a6081856129f6565b9350612a6b83612a07565b8060005b83811015612a9c578151612a838882612a26565b9750612a8e83612a3e565b925050600181019050612a6f565b5085935050505092915050565b600081519050919050565b600082825260208201905092915050565b6000612ad082612aa9565b612ada8185612ab4565b9350612aea818560208601611f73565b612af381611f9d565b840191505092915050565b6000608082019050612b13600083018761258a565b8181036020830152612b258186611fae565b90508181036040830152612b398185612a4b565b90508181036060830152612b4d8184612ac5565b905095945050505050565b600081519050612b678161217e565b92915050565b600060208284031215612b8357612b82611e40565b5b6000612b9184828501612b58565b91505092915050565b6000604082019050612baf600083018561258a565b612bbc60208301846125b4565b9392505050565b7f596f75206861766520616c72656164792076616c69646174656420746869732060008201527f636f6e74656e7400000000000000000000000000000000000000000000000000602082015250565b6000612c1f602783611f62565b9150612c2a82612bc3565b604082019050919050565b60006020820190508181036000830152612c4e81612c12565b9050919050565b7f4e487b7100000000000000000000000000000000000000000000000000000000600052601160045260246000fd5b6000612c8f82612174565b91507fffffffffffffffffffffffffffffffffffffffffffffffffffffffffffffffff8203612cc157612cc0612c55565b5b600182019050919050565b6000604082019050612ce160008301856125b4565b612cee60208301846125b4565b9392505050565b600067ffffffffffffffff821115612d1057612d0f612273565b5b602082029050602081019050919050565b600067ffffffffffffffff821115612d3c57612d3b612273565b5b602082029050919050565b6000612d5a612d5584612d21565b6122d3565b90508060208402830185811115612d7457612d73612476565b5b835b81811015612d9d5780612d898882612b58565b845260208401935050602081019050612d76565b5050509392505050565b600082601f830112612dbc57612dbb612269565b5b6002612dc9848285612d47565b91505092915050565b6000612de5612de084612cf5565b6122d3565b90508083825260208201905060408402830185811115612e0857612e07612476565b5b835b81811015612e315780612e1d8882612da7565b845260208401935050604081019050612e0a565b5050509392505050565b600082601f830112612e5057612e4f612269565b5b8151612e60848260208601612dd2565b91505092915050565b600060208284031215612e7f57612e7e611e40565b5b600082015167ffffffffffffffff811115612e9d57612e9c611e45565b5b612ea984828501612e3b565b91505092915050565b7f4e487b7100000000000000000000000000000000000000000000000000000000600052603260045260246000fd5b600081519050612ef0816120c8565b92915050565b600060208284031215612f0c57612f0b611e40565b5b6000612f1a84828501612ee1565b91505092915050565b6000612f2e82612174565b9150612f3983612174565b9250828202612f4781612174565b91508282048414831517612f5e57612f5d612c55565b5b5092915050565b7f4e487b7100000000000000000000000000000000000000000000000000000000600052601260045260246000fd5b6000612f9f82612174565b9150612faa83612174565b925082612fba57612fb9612f65565b5b828204905092915050565b50565b6000612fd5600083612ab4565b9150612fe082612fc5565b600082019050919050565b600060a082019050613000600083018761258a565b61300d602083018661258a565b61301a60408301856125b4565b61302760608301846125b4565b818103608083015261303881612fc8565b905095945050505050565b6000604082019050613058600083018561258a565b613065602083018461206c565b939250505056fea26469706673582212205657808afe3b19baddd962d1bf2d43c8c15dc414e1a5ad1bb9bdc388deb2706464736f6c63430008180033",
  "linkReferences": {},
  "deployedLinkReferences": {}
}